:020000040000FA
:100000008316D6308100003086000F3085008312C1
:100010008601061486100611861106128612061332
:100020008613352135213521352106108614061118
:1000300086110612861206138613352135213521C5
:100040003521061086100615861106128612061333
:1000500086133521352135213521061086100611EC
:100060008615061286120613861335213521352191
:100070003521061086100611861106168612061303
:1000800086133521352135213521061086100611BC
:100090008611061286160613861335213521352161
:1000A00035210610861006118611061286120617D3
:1000B000861335213521352135210610861006118C
:1000C0008611061286120613861735213521352131
:1000D000352105180920851872200519AB208519CE
:1000E000E4200920061086100611861106168612D5
:1000F000061386133521352135213521061086104A
:10010000061186150612861606138613352135212B
:100110003521352106108610061586110612861225
:10012000061786133521352135213521061486140D
:1001300006118611061286120613861735213521FF
:100140003521352105180920851872200519AB20A5
:100150008519E4200920061486140611861106125A
:1001600086120613861735213521352135210610D3
:10017000861006158611061286120617861335217B
:1001800035213521352106108610061186150612F7
:1001900086160613861335213521352135210610A3
:1001A000861006118611061686120613861335214F
:1001B00035213521352105180920851872200519AA
:1001C000AB208519E420092006108610061186113F
:1001D0000616861606178617352135213521352155
:1001E0000614861406158615061286120613861343
:1001F000352135213521352106108610061186114D
:100200000616861606178617352135213521352124
:100210000614861406158615061286120613861312
:10022000352135213521352106108610061186111C
:1002300006168616061786173521352135213521F4
:1002400006148614061586150612861206138613E2
:1002500035213521352135210518092085187220D1
:100260000519AB208519E42009208101811F362959
:02027000080084
:040272000034003420
:00000001FF
