:1000000000308A00C32800008316061083120610F1
:10001000831686108312861083160611831206112A
:100020008316861183128611C728123084000008B7
:100030000319282801308D008C018C0B1D288D0B95
:100040001C284A308C008C0B23282628800B1A2869
:10005000080083160610831206108316861083127A
:1000600086108316061183120615831686118312D5
:1000700086151108920015208316061083120610AB
:1000800083168610831286148316061183120615B2
:10009000831686118312861111089200152083168B
:1000A0000610831206148316861083128614831694
:1000B0000611831206118316861183128611110808
:1000C00092001520831606108312061483168610DC
:1000D0008312861083160611831206118316861169
:1000E00083128615110892001520CF28831606105A
:1000F0008312061483168610831286148316061143
:10010000831206118316861183128611110892003C
:10011000152083160610831206108316861083128C
:100120008614831606118312061583168611831210
:1001300086111108920015208316061083120610EE
:1001400083168610831286108316061183120615F5
:1001500083168611831286151108920015208316C6
:1001600006108312061483168610831286108316D7
:100170000611831206118316861183128615110843
:1001800092001520D72803081F39830004288316FE
:10019000051483120518CF280430910029288316EE
:1001A000851483128518D728043091007628C62834
:0201B0006300EA
:02400E00F13F80
:00000001FF
;PIC16F84
;CRC=07B9  CREATED="06-jun.-23 00:25"
