:1000000000308A001828000012308400000803190C
:10001000172801308D008C018C0B0C288D0B0B28C0
:100020004A308C008C0B12281528800B09280800F8
:1000300003081F398300003083168600831286016F
:10004000900190011008313C031C3D28FF309100C5
:1000500011088600C7308C008C0B2C282F289101AA
:100060001108860013309200042084308C008C0B21
:1000700037283A280000900A222890011008313CC5
:10008000031C5B28FF3091001108860001309200AC
:100090000420A6308C008C0B4B2800009101110825
:1000A0008600123092000420A6308C008C0B56285B
:1000B0000000900A3E2890011008313C031C7A2869
:1000C000FF30910011088600013092000420843036
:1000D0008C008C0B69286C280000910111088600A7
:1000E000123092000420C7308C008C0B75287828C1
:1000F000900A5C2890011008313C031C9828FF30BE
:10010000910011088600013092000420A6308C0076
:100110008C0B882800009101110886001230920093
:100120000420A6308C008C0B93280000900A7B28BA
:040130002028630020
:02400E00FA3F77
:00000001FF
;PIC16F84A
;CRC=177D  CREATED="25-may.-23 12:14"
