:1000000000308A00C92800008316061083120610EB
:10001000831686108312861083160611831206112A
:1000200083168611831286118A110A12D62822306D
:1000300084008313000803192A280630F800F7010A
:10004000F70B2028F80B1F287B30F700F70B26282A
:10005000800B1D28080083160610831206108316D5
:1000600086108312861083160611831206158316D6
:100070008611831286152108A20017208316061008
:1000800083120610831686108312861483160611B7
:100090008312061583168611831286112108A20089
:1000A00017208316061083120614831686108312F7
:1000B0008614831606118312061183168611831285
:1000C00086112108A2001720831606108312061439
:1000D000831686108312861083160611831206116A
:1000E00083168611831286152108A20017208A1113
:1000F0000A12DE2883160610831206148316861051
:100100008312861483160611831206118316861134
:10011000831286112108A20017208316061083126D
:100120000610831686108312861483160611831216
:10013000061583168611831286112108A200172046
:1001400083160610831206108316861083128610FB
:1001500083160611831206158316861183128615DF
:100160002108A20017208316061083120614831696
:1001700086108312861083160611831206118316C9
:100180008611831286152108A20017208A110A12EF
:10019000E62803081F39830083161F149F141F15B8
:1001A0009F1107309C0083138312042883160514C3
:1001B0008312051CDE285030A1002B2883168514DD
:1001C0008312851CE6285030A1007A28D5286300C8
:02400E007A3FF7
:00000001FF
;PIC16F877A
;CRC=61FC  CREATED="01-jun.-23 11:04"
