:1000000000308A0032280000FF3090001208910072
:100010004C28FF30900013089100502812089000DF
:10002000FF309100542813089000FF3091005728AA
:10003000FF30900091005B28061186126028123074
:100040009602031C312816308400FC308005031012
:10005000800C800C0008031931282F280000800B29
:100060002E28080003081F398300900191011430E5
:100070009200963093009401803083168600FF3002
:100080008500831206148610861506120508940052
:100090001408063C031904281408043C0319092811
:1000A0001408033C03190E28140B572813281408AE
:1000B000023C031918281408073C031D61281C285A
:1000C00077280615100896001F2006111008FF3C1F
:1000D0009500150896001F208616110896001F200F
:1000E00086121108FF3C9500150896001F20861FF8
:0C00F0007B2806177C28061346286300B6
:02400E00F13F80
:00000001FF
;PIC16F84A
;CRC=DA74  CREATED="03-jun.-23 20:15"
