:1000000000308A002B280000061586163C28DC30BC
:10001000900091004528DC3090001208910048289B
:1000200012089000DC3091004C28061186125028EE
:1000300012309602031C2A2816308400FC308005FA
:100040000310800C800C000803192A2828280000BF
:10005000800B2728080003081F39830090019101B5
:10006000143092009630930094010030831686007D
:10007000FF308500831204280614861086150612A8
:1000800005089400940803190728140B48280B2826
:100090001408023C031910281408033C03191528FE
:1000A000061410089600182006101008FF3C950052
:1000B000150896001820861511089600182086113C
:1000C0001108FF3C95001508960018204028630091
:02400E00F13F80
:00000001FF
;PIC16F84A
;CRC=B75B  CREATED="05-jun.-23 19:41"
