:1000000000308A0024280000061586163628FF30A6
:100010009000120891003F2812089000FF309100D4
:10002000432812309602031C232816308400FC302B
:1000300080050310800C800C000803192328212858
:100040000000800B2028080003081F39830090015E
:100050009101143092009630930094010030831681
:100060008600FF308500831286010428061486105E
:100070008615061205089400140B3F28072814085B
:10008000023C03190C2806151008960011200611D1
:100090001008FF3C950015089600112086161108DF
:1000A0009600112086121108FF3C95001508960055
:0600B00011203A28630054
:02400E00F13F80
:00000001FF
;PIC16F84A
;CRC=094F  CREATED="05-jun.-23 20:09"
