:1000000000308A002B280000061586163928FF309C
:10001000900091004228FF3090001208910045287E
:1000200012089000FF3091004928061186124D28D1
:1000300012309502031C2A2815308400FC308005FC
:100040000310800C800C000803192A2828280000BF
:10005000800B2728080003081F39830090019101B5
:1000600092019301003083168600FF3085008312D1
:1000700004280614861086150612050893009308B6
:1000800003190728130B45280B281308023C0319F2
:1000900010281308033C03191528061510089500AD
:1000A000182006111008FF3C940014089500182031
:1000B000861611089500182086121108FF3C94003E
:0A00C0001408950018203D28630085
:02400E00F13F80
:00000001FF
;PIC16F84A
;CRC=06DF  CREATED="05-jun.-23 22:57"
