:1000000000308A002B280000061586163B28FF309A
:10001000900012089100442812089000FF309100CF
:100020004828061186124C28FF30900091004F2876
:1000300012309602031C2A2816308400FC308005FA
:100040000310800C800C000803192A2828280000BF
:10005000800B2728080003081F39830090019101B5
:100060009201963093009401003083168600FF3091
:1000700085008312042806148610861506120508CA
:100080009400140B442807281408023C03190C2878
:100090001408033C031911289408031914280615A1
:1000A00010089600182006111008FF3C950015084E
:1000B000960018208616110896001820861211083E
:0E00C000FF3C95001508960018203F286300AD
:02400E00F13F80
:00000001FF
;PIC16F84A
;CRC=D3EF  CREATED="05-jun.-23 21:05"
