:1000000000308A0028280000061586163A28FF309E
:10001000900091004428FF3090001208910047287A
:1000200012089000FF3091004B2812309602031CFA
:10003000272816308400FC3080050310800C800CCB
:1000400000080319272825280000800B2428080011
:1000500003081F39830090019101143092009630FB
:1000600093009401003083168600FF3085008312D0
:1000700086010428061486108615061205089400C9
:100080001408033C03190728140B47280B281408ED
:10009000023C0319102806151008960015200611B9
:1000A0001008FF3C950015089600152086161108CB
:1000B0009600152086121108FF3C95001508960041
:0600C00015203E2863003C
:02400E00F13F80
:00000001FF
;PIC16F84A
;CRC=D4F8  CREATED="05-jun.-23 20:28"
