:1000000000308A002B280000061586163B28963003
:1000100090009100442896309000120891004728E3
:1000200012089000963091004B28061186124F2836
:1000300012309602031C2A2816308400FC308005FA
:100040000310800C800C000803192A2828280000BF
:10005000800B2728080003081F39830090019101B5
:100060009201963093009401003083168600FF3091
:1000700085008312042806148610861506120508CA
:100080009400940803190728140B47280B28140818
:10009000023C031910281408033C031915280615FF
:1000A00010089600182006111008FF3C950015084E
:1000B000960018208616110896001820861211083E
:0E00C000FF3C95001508960018203F286300AD
:02400E00F13F80
:00000001FF
;PIC16F84A
;CRC=420E  CREATED="04-jun.-23 16:59"
