:1000000000308A002F280000FF3090001208910075
:100010004828FF309000130891004C2812089000E7
:10002000FF309100502813089000FF3091005428B1
:10003000FF3090009100582812309602031C2E28A1
:1000400016308400FC3080050310800C800C000802
:1000500003192E282C280000800B2B2808000308E9
:100060001F398300900191019201E63093009401C1
:10007000003083168600FF30850083128601061447
:1000800086108615061205089400140B48280428CB
:100090001408033C031909281408043C03190E280A
:1000A0001408063C031913281408023C03191828E5
:1000B0000615100896001C2006111008FF3C95003C
:1000C000150896001C208616110896001C20861222
:1000D0001108FF3C9500150896001C20432863007A
:02400E00F13F80
:00000001FF
;PIC16F84A
;CRC=522C  CREATED="22-may.-23 15:19"
