:020000040000FA
:10000000382001306A20453079205330792054302F
:100010007920553079204430792049307920413099
:1000200079209B2043307920493079204330792052
:100030004C3079204F30792001306C2046307920C7
:100040004F307920523079204D307920413079205D
:100050005430792049307920563079204F3079203A
:100060009B20443079205030792045307920012878
:1000700083160510051185108312851005110510D2
:10008000D92030305020DD2030305020C620303094
:1000900050202030502076207420722064200800E8
:1000A000F0398C0006080F398C04831606088E0080
:1000B0000F30860583120C0886000515051183167E
:1000C0000E088600831208000630772880307728D3
:1000D000C030772880387728C038772808307728CC
:1000E0000E3077280C30772801307728283005101B
:1000F0007B28051483208D0050200D0E5020051CF8
:10010000DF20CB2008008C00F13C031D8A28EE3054
:100110008C0097280C08D13C031D9128EE308C00F0
:1001200097280C08BA3C031D9728DF308C000C0878
:1001300008001030A0280130A0280230A028033089
:100140008F00203079208F0BA12808009000F03913
:10015000031DAE2820307920B0289000100EB12069
:1001600010080F398F00093C031CB9280F08303ED6
:10017000BB280F08373E792800000000000000006F
:100180000000000008000000A430CF28000040302C
:10019000CF281F30CF2800000E30CF280530910027
:1001A000910BD0280800C830E2286430E2283230B1
:1001B000E2281430E2280A30E2280530E228023032
:1001C000E22801309200F93091000000910BE528FF
:1001D000920BE3280800C830F6286430F628323045
:1001E000F6281430F6280A30F628053093006430DB
:1001F0009200F93091000000910BFB28920BF92836
:06020000930BF728080033
:04020600003400348C
:02400E00F13F80
:00000001FF
