:020000040000FA
:100000008316851505148514051505160530810020
:1000100086018312851D3B2805183D288518352843
:100020003928F83081000B110B1D14280800F0301E
:1000300081000B110B1D1A280800E13081000B1103
:100040000B1D20280800C13081000B110B1D262834
:100050000800153081000B110B1D2C2808000630FC
:1000600081000B110B1D3228080091304028893087
:100070004028A530402803014028851C37289930A6
:100080008600051D49280617112006132920232064
:100090001120051E412806171720112006132F20B6
:0600A0001D2011200A28BA
:0400A60000340034EE
:02400E00F13F80
:00000001FF
