:020000040000FA
:1000000083160613051505160530810083122C286A
:10001000F83081000B110B1D0B280800F030810017
:100020000B110B1D11280800E13081000B110B1D75
:1000300017280800C13081000B110B1D1D28080076
:10004000153081000B110B1D23280800063081009C
:100050000B110B1D29280800051D34280617082040
:10006000061320201A200820051E2C2806170E2013
:0C007000082006132620142008202C284D
:04007C000034003418
:02400E00F13F80
:00000001FF
