:1000000000308A001828000012308400000803190C
:10001000172801308D008C018C0B0C288D0B0B28C0
:100020004A308C008C0B12281528800B09280800F8
:1000300003081F3983008316051483120518492805
:1000400083168610831286148316061083120614F4
:10005000013092000420831606108312061002302D
:100060009100FA3092000420910B3128831606107B
:1000700083120614023092000420831606108312A5
:10008000061002309100FA3092000420910B4328B0
:100090005128831686108312861083160610831249
:0C00A00006100530920004201B286300AD
:02400E00F13F80
:00000001FF
;PIC16F84A
;CRC=6AB3  CREATED="08-jun.-23 08:49"
