:1000000000308A00DE2800008316061083120610D6
:10001000831686108312861083160611831206112A
:100020008316861183128611E92813308400000894
:100030000319282801308D008C018C0B1D288D0B95
:100040001C284A308C008C0B23282628800B1A2869
:10005000080083160610831206108316861083127A
:1000600086108316061183120615831686118312D5
:1000700086151208930015208316061083120610A9
:1000800083168610831286148316061183120615B2
:100090008316861183128611120893001520831689
:1000A0000610831206148316861083128614831694
:1000B0000611831206118316861183128611120807
:1000C00093001520831606108312061483168610DB
:1000D0008312861083160611831206118316861169
:1000E00083128615120893001520F1288316061036
:1000F0008312061483168610831286148316061143
:10010000831206118316861183128611120893003A
:10011000152083160610831206108316861083128C
:100120008614831606118312061583168611831210
:1001300086111208930015208316061083120610EC
:1001400083168610831286108316061183120615F5
:1001500083168611831286151208930015208316C4
:1001600006108312061483168610831286108316D7
:100170000611831206118316861183128615120842
:1001800093001520F928831606128312061683168B
:100190008612831286120329831606128312061210
:1001A0008316861283128616062983160612831278
:1001B00006128316861283128612092903081F3934
:1001C00083009101003083168600FF308500831282
:1001D0000428831605158312051DF12802309200AC
:1001E0002928831685158312851DF928023092006F
:1001F0007628FF30831685008312050891001108C8
:10020000033C0319C328110B0629CC2891080319B4
:06021000D528E828630078
:02400E00F13F80
:00000001FF
;PIC16F84A
;CRC=74B2  CREATED="03-jun.-23 11:50"
